S00D000075736172742E73726563E8
S11300000C942A000C9447000C9447000C9447006D
S11300100C9447000C9447000C9447000C94470040
S11300200C9447000C9447000C9447000C946C000B
S11300300C9447000C9489000C9447000C944700DE
S11300400C9447000C9447000C9447000C94470010
S11300500C94470011241FBECFE5D8E0DEBFCDBF0E
S113006010E0A0E6B0E0EEEFF1E002C005900D92E2
S1130070A43BB107D9F720E0A4EBB0E001C01D9286
S1130080A63BB207E1F70E94F5000C94FD000C9426
S1130090000010BC89E189B988E98AB986E880BD85
S11300A008955D9BFECF8CB908950E945100089578
S11300B0CF93DF93EC0103C00E9455002196888101
S11300C08111FACFDF91CF91089583B7846083BF04
S11300D089B7816089BF08951F920F920FB60F925E
S11300E011248F939F938091B400843631F49BB391
S11300F081E089278BBB1092B4008091B4008F5F9C
S11301008093B4009F918F910F900FBE0F901F901A
S113011018951F920F920FB60F9211248F938CB1E2
S11301208093B5008F910F900FBE0F901F9018957C
S11301300E9465008FEF8ABB1BBA789451C08091EE
S1130140B500813329F49BB382E089278BBB46C079
S11301508091B500823329F49BB384E089278BBB5B
S11301603DC08091B500833329F49BB388E089278F
S11301708BBB34C08091B500843329F49BB380E1F8
S113018089278BBB2BC08091B500853329F49BB3A1
S113019080E289278BBB22C08091B500863329F485
S11301A09BB380E489278BBB19C08091B50087334A
S11301B021F48BB380588BBB11C08091B50083367A
S11301C011F41BBA0BC08091B500833719F48FEF7B
S11301D08BBB04C082EA90E00E9458001092B500E4
S11301E08091B5008111ABCFFBCF0E94490089EA11
S11101F090E00E9458000E949800F894FFCFFF
S11301FE566F6C6F64796D797220446F62726F689A
S113020E6F72736B79690A0D004E616369736E695F
S113021E6A206B6C617769737A205B785D0A0D00D6
S113022E7A6E616B207072617769646C6F77790A8C
S113023E0D00626C61640A0D000A476F746F777962
S107024E0A0D000091
S9030000FC
