S01700004763634170706C69636174696F6E312E737265635B
S11300000C942A000C9434000C9434000C943400A6
S11300100C9434000C9434000C9434000C9434008C
S11300200C9434000C9434000C9434000C9434007C
S11300300C9434000C9434000C9434000C9434006C
S11300400C9434000C9434000C9434000C9434005C
S11300500C94340011241FBECFE5D8E0DEBFCDBF21
S11300600E9436000C9459000C9400008FEF8ABB58
S113007091E08FE79BBB2FE33DE043E0215030400C
S11300804040E1F700C00000D99A2FE33DE043E08F
S1130090215030404040E1F700C000008BBB2FE30B
S11300A03DE043E0215030404040E1F700C0000013
S10900B0E1CFF894FFCF3C
S9030000FC
