:100000000C942A000C9434000C9434000C943400AA
:100010000C9434000C9434000C9434000C94340090
:100020000C9434000C9434000C9434000C94340080
:100030000C9434000C9434000C9434000C94340070
:100040000C9434000C9434000C9434000C94340060
:100050000C94340011241FBECFE5D8E0DEBFCDBF25
:100060000E94C2000C94C4000C940000CF93DF9354
:1000700000D000D0CDB7DEB719821A821B821C8255
:1000800099B3E7E8F3E13197F1F700C0000089B3D5
:100090009817B9F180E05FC0E22FF0E081E090E0D6
:1000A000022E02C0880F991F0A94E2F780958BBB3D
:1000B00083EF91E00197F1F700C0000089B38F70E2
:1000C0008D3061F028F4873069F08B3049F00CC036
:1000D0008E3061F08F3041F480E009C082E007C0CB
:1000E00083E005C084E003C085E001C081E034976F
:1000F00041E050E04C0F5D1FE40FF51F80832F5F40
:1001000001C024E0283040F290E020E080E021C0EF
:10011000213049F4E1E0F0E0EC0FFD1FE90FF11DA3
:10012000308131118FEF211113C0E1E0F0E0EC0FCD
:10013000FD1FE90FF11D3081332351F0353031F0CF
:10014000892F880F880F830F21E002C021E08FEFF5
:100150009F5F9430E8F20F900F900F900F90DF9117
:10016000CF9108958FEF87BB80EF8ABB8FE08BBB69
:100170000E94360088BB87E893E10197F1F700C041
:0C0180000000F6CF0E94B200F894FFCF00
:00000001FF
