S00D00004C616220322E73726563B6
S11300000C942A000C9434000C9434000C943400A6
S11300100C9434000C9434000C9434000C9434008C
S11300200C9434000C9434000C9434000C9434007C
S11300300C9434000C9434000C9434000C9434006C
S11300400C9434000C9434000C9434000C9434005C
S11300500C94340011241FBECFE5D8E0DEBFCDBF21
S11300600E9472010C9474010C940000CF93DF93EE
S113007000D000D0CDB7DEB719821A821B821C8251
S1130080823461F018F4813431F010C0833449F0C3
S1130090843451F00BC029B3922F08C026B3922F99
S11300A005C023B3922F02C020B3922FE7E8F3E1F7
S11300B03197F1F700C000009213D7C0662309F40A
S11300C0A8C0E3EFF1E03197F1F700C000008234FB
S11300D061F018F4813431F010C0833449F0843471
S11300E051F00BC099B39F7008C096B39F7005C0C0
S11300F093B39F7002C090B39F709D3069F028F451
S1130100973071F09B3051F00DC09E3009F4AFC0B0
S11301109F3041F480E0ACC082E0AAC083E0A8C074
S113012084E0A6C085E0A4C08234A1F018F4813430
S113013031F030C08334C9F0843411F12BC041E074
S113014050E0022E02C0440F551F0A94E2F7409576
S11301504BBB20C041E050E0022E02C0440F551FAB
S11301600A94E2F7409548BB15C041E050E0022EE6
S113017002C0440F551F0A94E2F7409545BB0AC0DC
S113018041E050E0022E02C0440F551F0A94E2F7EA
S1130190409542BBE3EFF1E03197F1F700C0000076
S11301A0823461F018F4813431F010C0833449F0A2
S11301B0843451F00BC099B39F7008C096B39F70FC
S11301C005C093B39F7002C090B39F709D3061F0DF
S11301D028F4973069F09B3049F00CC09E3061F0F0
S11301E09F3041F430E009C032E007C033E005C07D
S11301F034E003C035E001C031E0E22FF0E0349791
S113020041E050E04C0F5D1FE40FF51F30832F5F7A
S113021001C024E0283008F487CF90E020E080E09B
S113022021C0213049F4E1E0F0E0EC0FFD1FE90FBB
S1130230F11D308131118FEF211113C0E1E0F0E0A5
S1130240EC0FFD1FE90FF11D3081332351F03530E0
S113025031F0892F880F880F830F21E002C021E03D
S11302608FEF9F5F9430E8F203C080E001C081E02B
S11302700F900F900F900F90DF91CF9108958234DB
S113028071F018F4813431F00895833469F08434C2
S113029081F0089580EF8ABB8FE08BBB089580EFD7
S11302A087BB8FE088BB089580EF84BB8FE085BB5C
S11302B0089580EF81BB8FE082BB08958FEF87BBE9
S11302C084E490E00E943F0161E070E084E490E007
S11302D00E94360088BB87E893E10197F1F700C0DC
S10F02E00000F2CF0E945E01F894FFCFF2
S9030000FC
