:100000000C942A000C9447000C9447000C94470071
:100010000C9447000C9447000C9447000C94470044
:100020000C9447000C9447000C9447000C94470034
:100030000C9447000C9447000C9447000C94470024
:100040000C9447000C9447000C9447000C94470014
:100050000C94470011241FBECFE5D8E0DEBFCDBF12
:1000600010E0A0E6B0E0EAE1F6E002C005900D92F3
:10007000A636B107D9F720E0A6E6B0E001C01D9290
:10008000A437B207E1F70E94DF010C940B030C9434
:1000900000008234E1F018F4813431F008958334A3
:1000A00049F18434D1F108958BE390E09093670097
:1000B000809366008AE390E09093690080936800E3
:1000C00089E390E090936B0080936A00089588E341
:1000D00090E0909367008093660087E390E09093B0
:1000E00069008093680086E390E090936B008093B2
:1000F0006A00089585E390E090936700809366001E
:1001000084E390E0909369008093680083E390E03B
:1001100090936B0080936A00089582E390E090933F
:1001200067008093660081E390E09093690080937C
:10013000680080E390E090936B0080936A000895DC
:100140009FEB980F943070F40E944900E091680092
:10015000F091690080EF8083E0916600F091670084
:100160008FE080830895E0916E00F0916F009081A0
:1001700098609083E0916E00F0916F009081282F3D
:10018000207F9F70922B9083E0916E00F0916F0022
:100190009081977F90830000E0916E00F0916F0056
:1001A00090819860908320E1829FC0011124E091AA
:1001B0006E00F0916F0090819F70892B8083E09199
:1001C0006E00F0916F008081877F808389EF90E0DF
:1001D0000197F1F700C000000895E0916E00F091E2
:1001E0006F0080818B7F808381E00E94B30083EF6A
:1001F00091E00197F1F700C00000089570E06150B0
:10020000710990E4699F800D11248150E0916E0086
:10021000F0916F0090819B7F908380680E94B30073
:1002200008950F931F93CF938B01E0916E00F0918F
:100230006F0090819B7F9083880F880F880F806468
:100240000E94B300E0916E00F0916F0080818460A5
:100250008083C0E007C0F801EC0FF11D80810E948F
:10026000B300CF5FC830B8F3CF911F910F910895BD
:10027000E0916E00F0916F009081946090830E94F5
:10028000B30008958234B1F018F4813431F0089548
:100290008334E9F0843441F108958BE390E0909346
:1002A0006F0080936E008AE390E090936D008093DE
:1002B0006C0026C088E390E090936F0080936E00FE
:1002C00087E390E090936D0080936C0019C085E304
:1002D00090E090936F0080936E0084E390E09093A1
:1002E0006D0080936C000CC082E390E090936F00EF
:1002F00080936E0081E390E090936D0080936C009A
:1003000087E893E10197F1F700C00000E0916C00ED
:10031000F0916D008FEF8083E0916E00F0916F009F
:100320001082E0916E00F0916F0080818B7F80835E
:1003300088E20E94B30086E00E94B3008CE00E9435
:10034000B30061E081E00E94FE00E0916E00F09158
:100350006F008081846080830E94ED0083EF91E0D4
:100360000197F1F700C00000089588E090E00E9436
:10037000EA01FC0182E0808385E0818384E082835E
:1003800083838483858384E1868388E08783CF01A8
:1003900008950E94B501BC0180E00E9411010E94F5
:1003A000ED0061E081E00E94FE0080E00E943801E3
:1003B00087EA91E60197F1F700C00000F0CF81E4F1
:1003C0000E94420184E490E00E94A0008FEF8ABB6B
:1003D0000E94C9010F931F93CF93DF938230910541
:1003E00010F482E090E0E0917200F091730020E060
:1003F00030E0A0E0B0E0309719F1408151810281F6
:10040000138148175907C8F08417950769F41097A6
:1004100031F012960C93129713961C9327C00093F9
:1004200072001093730022C02115310519F0421794
:10043000530718F49A01BD01EF01DF01F801DBCF8A
:1004400021153105F9F0281B390B2430310580F4D2
:100450008A819B816115710521F0FB019383828361
:1004600004C09093730080937200FE01329644C0E2
:10047000FE01E20FF31F81939193225031093983DA
:1004800028833AC02091700030917100232B41F4F1
:1004900020916200309163003093710020937000CE
:1004A00020916000309161002115310541F42DB794
:1004B0003EB74091640050916500241B350BE091DC
:1004C0007000F0917100E217F307A0F42E1B3F0BB0
:1004D0002817390778F0AC014E5F5F4F24173507B6
:1004E00048F04E0F5F1F509371004093700081934E
:1004F000919302C0E0E0F0E0CF01DF91CF911F9136
:100500000F910895CF93DF93009709F481C0FC0108
:10051000329713821282A0917200B09173001097EB
:1005200081F420813181820F931F209170003091DE
:1005300071002817390751F5F0937100E0937000AE
:1005400067C0ED0120E030E0CE17DF0740F44A81BC
:100550005B819E0141155105F1F0EA01F5CFD3838E
:10056000C28340815181840F951FC817D90759F460
:1005700088819981840F951F0296918380838A8157
:100580009B81938382832115310529F4F0937300B5
:10059000E09372003DC0E901FB83EA8349915991E0
:1005A000C40FD51FEC17FD0761F480819181840F82
:1005B000951F0296E90199838883828193819B83A9
:1005C0008A83E0E0F0E012968D919C91139700975A
:1005D00019F0FD01DC01F7CF8D919C9111979D01E0
:1005E0002E5F3F4F820F931F20917000309171005A
:1005F0002817390769F4309729F410927300109284
:10060000720002C013821282B0937100A093700036
:0A061000DF91CF910895F894FFCF19
:06061A0000007400200046
:00000001FF
