:100000000C942A000C943C000C943C000C943C0092
:100010000C943C000C943C000C943C000C943C0070
:100020000C943C000C943C000C943C000C943C0060
:100030000C943C000C943C000C943C000C943C0050
:100040000C943C000C943C000C943C000C943C0040
:100050000C943C0011241FBECFE5D8E0DEBFCDBF1D
:1000600020E0A0E6B0E001C01D92A236B207E1F7A1
:100070000E943E000C9486000C9400008FEF87BB1A
:1000800080EF8ABB8FE08BBB84E08093610035C03A
:1000900081E090E002C0880F991F2A95E2F78095D1
:1000A0008BBB89EF90E00197F1F700C0000089B3A6
:1000B0008F70809360008D3079F028F48730A1F044
:1000C0008B3071F020C08E3019F08F3089F01BC05A
:1000D00080916100835018C0809161008F5F14C0CF
:1000E000809161008B5F10C080916100875F0CC0C0
:1000F000809161008F5F80936100209161002830C2
:1001000038F280E001C08FEF88BBBECFF894FFCFFC
:00000001FF
