:100000000C942A000C943C000C943C000C943C0092
:100010000C943C000C943C000C943C000C943C0070
:100020000C943C000C943C000C943C000C9452004A
:100030000C943C000C943C000C943C000C943C0050
:100040000C943C000C943C000C943C000C943C0040
:100050000C943C0011241FBECFE5D8E0DEBFCDBF1D
:1000600020E0A0E6B0E001C01D92A236B207E1F7A1
:100070000E9463000C9496000C94000013BE85E06F
:1000800083BF81E089BF089507C089EF90E00197A1
:10009000F1F700C00000C9019C0121503109892BF2
:1000A000A1F708951F920F920FB60F9211248F930C
:1000B000809161008F5F809361008F910F900FBEE0
:1000C0000F901F9018958FEF8ABB0E943E0082B759
:1000D00008B600FE07C088B7816088BF83B7887FF5
:1000E00083BF80E08BBB88EC90E00E94440086B325
:1000F000817020916000821751F330E02095309597
:10010000482F50E024233523232B39F012BE1092C0
:10011000610093B7956093BF06C093B7987F93BF74
:10012000909161009BBB80936000D1CFF894FFCF8A
:00000001FF
