S00C00004C6162312E73726563D8
S11300000C942A000C9434000C9434000C943400A6
S11300100C9434000C9434000C9434000C9434008C
S11300200C9434000C9434000C9434000C9434007C
S11300300C9434000C9434000C9434000C9434006C
S11300400C9434000C9434000C9434000C9434005C
S11300500C94340011241FBECFE5D8E0DEBFCDBF21
S11300600E947E000C9482000C94000083E088BB04
S113007081E090E021E030E070E0E1E091111CC00B
S11300808F5F68B3A901082E02C0440F551F0A945C
S1130090E2F7462748BB68B34EEF480FD90102C0C8
S11300A0AA0FBB1F4A95E2F7AD01462748BB87302C
S11300B0F1F486E09E2F1BC0815068B3A901082E7D
S11300C002C0440F551F0A94E2F7462748BB68B3A1
S11300D042E0480FD90102C0AA0FBB1F4A95E2F7BC
S11300E0AD01462748BB811102C081E0972FA3EDE3
S11300F0B0E31197F1F700C00000C0CF8FEF87BBCA
S10B01000E943600F894FFCFC1
S9030000FC
